:100000000C9475310C9492310C9492310C94F83418
:100010000C9492310C9492310C9492310C94923154
:100020000C9492310C9492310C9492310C94923144
:100030000C9492310C9492310C9492310C94923134
:100040000C9492310C9492310C9492310C94923124
:100050000C9492310C9492310C9492310C94923114
:100060000C9492310C9492310C9492310C94923104
:100070000C9492310C9492310C9492310C949231F4
:100080000C9492310C9492310C9492310C94D234A1
:100090000C9492310C9492310C9492310C949231D4
:1000A0000C9492310C9492310C9492310C949231C4
:1000B0000C9444350C9492310C9492310C949231FE
:1000C0000C9492310C9492310C9492310C949231A4
:1000D0000C9492310C9492310C9492310C94923194
:1000E0000C9492310C9492310C9492310C94923184
:1000F0000C9492310C9492310C9492310C94923174
:100100000C9492310C941E350C9492310C94AC34B6
:100110000C9492310C9492310C9492310C94923153
:100120000C9492310C9492310C9492310C94923143
:100130000C9492310C9492310C9492310C94923133
:100140000C9492310C9492310C9492310C9476353B
:100150000C9492310C9492310C9492310C94923113
:100160000C9492310C9492310C9492310C94923103
:100170000C9492310C949231D000D000D000D00079
:10018000D000D000D000D000D000D000D000D000EF
:10019000D000D000D000D000D100D100D100D100DB
:1001A000D100D100D100D100D100D100D100D100C7
:1001B000D100D100D100D100D100D100D100D100B7
:1001C000D200D200D200D200D200D200D200D2009F
:1001D000D200D200D200D200D200D200D200D2008F
:1001E000D200D200D200D200D300D300D300D3007B
:1001F000D300D300D300D300D300D300D300D30067
:10020000D300D300D300D300D300D300D300D30056
:10021000D400D400D400D400D400D400D400D4003E
:10022000D400D400D400D400D400D400D400D4002E
:10023000D400D400D400D400D500D500D500D5001A
:10024000D500D500D500D500D500D500D500D50006
:10025000D500D500D500D500D500D500D500D600F5
:10026000D600D600D600D600D600D600D600D600DE
:10027000D600D600D600D600D600D600D600D600CE
:10028000D600D600D700D700D700D700D700D700B8
:10029000D700D700D700D700D700D700D700D700A6
:1002A000D700D700D700D700D800D800D800D80092
:1002B000D800D800D800D800D800D800D800D8007E
:1002C000D800D800D800D800D800D800D800D9006D
:1002D000D900D900D900D900D900D900D900D90056
:1002E000D900D900D900D900D900D900D900D90046
:1002F000D900DA00DA00DA00DA00DA00DA00DA002F
:10030000DA00DA00DA00DA00DA00DA00DA00DA001D
:10031000DA00DA00DB00DB00DB00DB00DB00DB0007
:10032000DB00DB00DB00DB00DB00DB00DB00DB00F5
:10033000DB00DB00DB00DB00DC00DC00DC00DC00E1
:10034000DC00DC00DC00DC00DC00DC00DC00DC00CD
:10035000DC00DC00DC00DC00DC00DD00DD00DD00BA
:10036000DD00DD00DD00DD00DD00DD00DD00DD00A5
:10037000DD00DD00DD00DD00DD00DD00DE00DE0093
:10038000DE00DE00DE00DE00DE00DE00DE00DE007D
:10039000DE00DE00DE00DE00DE00DE00DE00DF006C
:1003A000DF00DF00DF00DF00DF00DF00DF00DF0055
:1003B000DF00DF00DF00DF00DF00DF00DF00E00044
:1003C000E000E000E000E000E000E000E000E0002D
:1003D000E000E000E000E000E000E000E000E1001C
:1003E000E100E100E100E100E100E100E100E10005
:1003F000E100E100E100E100E100E100E100E200F4
:10040000E200E200E200E200E200E200E200E200DC
:10041000E200E200E200E200E200E200E200E300CB
:10042000E300E300E300E300E300E300E300E300B4
:10043000E300E300E300E300E300E300E300E400A3
:10044000E400E400E400E400E400E400E400E4008C
:10045000E400E400E400E400E400E400E500E5007A
:10046000E500E500E500E500E500E500E500E50064
:10047000E500E500E500E500E500E600E600E60051
:10048000E600E600E600E600E600E600E600E6003C
:10049000E600E600E600E600E700E700E700E70028
:1004A000E700E700E700E700E700E700E700E70014
:1004B000E700E700E700E800E800E800E800E800FF
:1004C000E800E800E800E800E800E800E800E800EC
:1004D000E800E900E900E900E900E900E900E900D5
:1004E000E900E900E900E900E900E900E900E900C4
:1004F000EA00EA00EA00EA00EA00EA00EA00EA00AC
:10050000EA00EA00EA00EA00EA00EA00EB00EB0099
:10051000EB00EB00EB00EB00EB00EB00EB00EB0083
:10052000EB00EB00EB00EB00EC00EC00EC00EC006F
:10053000EC00EC00EC00EC00EC00EC00EC00EC005B
:10054000EC00EC00ED00ED00ED00ED00ED00ED0045
:10055000ED00ED00ED00ED00ED00ED00ED00ED0033
:10056000EE00EE00EE00EE00EE00EE00EE00EE001B
:10057000EE00EE00EE00EE00EE00EF00EF00EF0008
:10058000EF00EF00EF00EF00EF00EF00EF00EF00F3
:10059000EF00EF00EF00F000F000F000F000F000DE
:1005A000F000F000F000F000F000F000F000F000CB
:1005B000F100F100F100F100F100F100F100F100B3
:1005C000F100F100F100F100F100F200F200F200A0
:1005D000F200F200F200F200F200F200F200F2008B
:1005E000F200F200F300F300F300F300F300F30075
:1005F000F300F300F300F300F300F300F300F40062
:10060000F400F400F400F400F400F400F400F4004A
:10061000F400F400F400F500F500F500F500F50035
:10062000F500F500F500F500F500F500F500F50022
:10063000F600F600F600F600F600F600F600F6000A
:10064000F600F600F600F600F700F700F700F700F6
:10065000F700F700F700F700F700F700F700F700E2
:10066000F700F800F800F800F800F800F800F800CB
:10067000F800F800F800F800F800F900F900F900B7
:10068000F900F900F900F900F900F900F900F900A2
:10069000F900FA00FA00FA00FA00FA00FA00FA008B
:1006A000FA00FA00FA00FA00FA00FB00FB00FB0077
:1006B000FB00FB00FB00FB00FB00FB00FB00FB0062
:1006C000FC00FC00FC00FC00FC00FC00FC00FC004A
:1006D000FC00FC00FC00FC00FD00FD00FD00FD0036
:1006E000FD00FD00FD00FD00FD00FD00FD00FD0022
:1006F000FE00FE00FE00FE00FE00FE00FE00FE000A
:10070000FE00FE00FE00FF00FF00FF00FF00FF00F4
:10071000FF00FF00FF00FF00FF00FF0000010001DD
:1007200000010001000100010001000100010001C1
:1007300000010001010101010101010101010101AB
:100740000101010101010101010102010201020196
:100750000201020102010201020102010201020181
:100760000301030103010301030103010301030169
:100770000301030103010401040104010401040154
:10078000040104010401040104010501050105013E
:100790000501050105010501050105010501050129
:1007A0000601060106010601060106010601060111
:1007B00006010601060107010701070107010701FC
:1007C00007010701070107010701080108010801E6
:1007D00008010801080108010801080108010901D0
:1007E00009010901090109010901090109010901B9
:1007F000090109010A010A010A010A010A010A01A3
:100800000A010A010A010A010B010B010B010B018C
:100810000B010B010B010B010B010B010C010C0176
:100820000C010C010C010C010C010C010C010C0160
:100830000D010D010D010D010D010D010D010D0148
:100840000D010D010E010E010E010E010E010E0132
:100850000E010E010E010E010F010F010F010F011C
:100860000F010F010F010F010F010F011001100106
:1008700010011001100110011001100110011101EF
:1008800011011101110111011101110111011101D8
:1008900011011201120112011201120112011201C1
:1008A00012011201120113011301130113011301AB
:1008B0001301130113011301140114011401140194
:1008C000140114011401140114011501150115017D
:1008D0001501150115011501150115011501160167
:1008E0001601160116011601160116011601160150
:1008F0001701170117011701170117011701170138
:100900001701180118011801180118011801180120
:100910001801180119011901190119011901190109
:100920001901190119011A011A011A011A011A01F2
:100930001A011A011A011A011B011B011B011B01DB
:100940001B011B011B011B011B011C011C011C01C4
:100950001C011C011C011C011C011C011D011D01AD
:100960001D011D011D011D011D011D011D011E0196
:100970001E011E011E011E011E011E011E011F017E
:100980001F011F011F011F011F011F011F011F0167
:10099000200120012001200120012001200120014F
:1009A0002001210121012101210121012101210138
:1009B0002101220122012201220122012201220120
:1009C0002201230123012301230123012301230108
:1009D00023012301240124012401240124012401F1
:1009E00024012401250125012501250125012501D9
:1009F00025012501260126012601260126012601C1
:100A000026012601260127012701270127012701A9
:100A10002701270127012801280128012801280191
:100A20002801280128012901290129012901290179
:100A30002901290129012A012A012A012A012A0161
:100A40002A012A012A012B012B012B012B012B0149
:100A50002B012B012B012C012C012C012C012C0131
:100A60002C012C012C012D012D012D012D012D0119
:100A70002D012D012E012E012E012E012E012E0100
:100A80002E012E012F012F012F012F012F012F01E8
:100A90002F012F01300130013001300130013001D0
:100AA00030013101310131013101310131013101B7
:100AB000310132013201320132013201320132019F
:100AC0003201330133013301330133013301330187
:100AD000340134013401340134013401340134016E
:100AE0003501350135013501350135013501360155
:100AF000360136013601360136013601370137013C
:100B00003701370137013701370137013801380123
:100B1000380138013801380138013901390139010A
:100B200039013901390139013A013A013A013A01F1
:100B30003A013A013A013B013B013B013B013B01D8
:100B40003B013B013C013C013C013C013C013C01BF
:100B50003C013D013D013D013D013D013D013D01A6
:100B60003D013E013E013E013E013E013E013E018E
:100B70003F013F013F013F013F013F014001400173
:100B8000400140014001400140014101410141015A
:100B90004101410141014101420142014201420141
:100BA0004201420142014301430143014301430128
:100BB000430143014401440144014401440144010F
:100BC00044014501450145014501450145014601F5
:100BD00046014601460146014601460147014701DB
:100BE00047014701470147014701480148014801C2
:100BF00048014801480149014901490149014901A8
:100C0000490149014A014A014A014A014A014A018E
:100C10004B014B014B014B014B014B014B014C0173
:100C20004C014C014C014C014C014D014D014D0159
:100C30004D014D014D014D014E014E014E014E0140
:100C40004E014E014F014F014F014F014F014F0126
:100C50004F0150015001500150015001500151010C
:100C600051015101510151015101520152015201F1
:100C700052015201520153015301530153015301D7
:100C800053015301540154015401540154015401BE
:100C900055015501550155015501550156015601A2
:100CA0005601560156015601570157015701570188
:100CB000570157015801580158015801580158016E
:100CC0005901590159015901590159015A015A0152
:100CD0005A015A015A015A015B015B015B015B0138
:100CE0005B015B015C015C015C015C015C015C011E
:100CF0005D015D015D015D015D015D015E015E0102
:100D00005E015E015E015E015F015F015F015F01E7
:100D10005F015F01600160016001600160016101CC
:100D200061016101610161016101620162016201B0
:100D30006201620162016301630163016301630196
:100D4000630164016401640164016401650165017A
:100D5000650165016501650166016601660166015F
:100D60006601660167016701670167016701680144
:100D70006801680168016801680169016901690128
:100D8000690169016A016A016A016A016A016A010D
:100D90006B016B016B016B016B016B016C016C01F1
:100DA0006C016C016C016D016D016D016D016D01D6
:100DB0006E016E016E016E016E016E016F016F01B9
:100DC0006F016F016F01700170017001700170019E
:100DD0007001710171017101710171017201720182
:100DE0007201720172017301730173017301730166
:100DF000730174017401740174017401750175014A
:100E0000750175017501760176017601760176012D
:100E10007701770177017701770177017801780110
:100E200078017801780179017901790179017901F5
:100E30007A017A017A017A017A017B017B017B01D7
:100E40007B017B017C017C017C017C017C017D01BB
:100E50007D017D017D017D017E017E017E017E019E
:100E60007E017F017F017F017F017F018001800181
:100E70008001800180018101810181018101810165
:100E80008201820182018201820183018301830147
:100E9000830183018401840184018401840185012B
:100EA000850185018501850186018601860186010E
:100EB00086018701870187018701870188018801F1
:100EC00088018801880189018901890189018901D5
:100ED0008A018A018A018A018B018B018B018B01B6
:100EE0008B018C018C018C018C018C018D018D0199
:100EF0008D018D018D018E018E018E018E018F017C
:100F00008F018F018F018F0190019001900190015D
:100F1000900191019101910191019201920192013F
:100F20009201920193019301930193019301940122
:100F30009401940194019501950195019501950104
:100F400096019601960196019701970197019701E5
:100F500097019801980198019801980199019901C8
:100F6000990199019A019A019A019A019A019B01AA
:100F70009B019B019B019C019C019C019C019D018B
:100F80009D019D019D019D019E019E019E019E016D
:100F90009F019F019F019F019F01A001A001A0014E
:100FA000A001A101A101A101A101A101A201A20130
:100FB000A201A201A301A301A301A301A401A40111
:100FC000A401A401A401A501A501A501A501A601F3
:100FD000A601A601A601A701A701A701A701A801D3
:100FE000A801A801A801A801A901A901A901A901B5
:100FF000AA01AA01AA01AA01AB01AB01AB01AB0195
:10100000AC01AC01AC01AC01AC01AD01AD01AD0175
:10101000AD01AE01AE01AE01AE01AF01AF01AF0156
:10102000AF01B001B001B001B001B101B101B10136
:10103000B101B201B201B201B201B201B301B30117
:10104000B301B301B401B401B401B401B501B501F8
:10105000B501B501B601B601B601B601B701B701D8
:10106000B701B701B801B801B801B801B901B901B8
:10107000B901B901BA01BA01BA01BA01BB01BB0198
:10108000BB01BB01BC01BC01BC01BC01BD01BD0178
:10109000BD01BD01BE01BE01BE01BE01BF01BF0158
:1010A000BF01BF01C001C001C001C001C101C10138
:1010B000C101C101C201C201C201C201C301C30118
:1010C000C301C401C401C401C401C501C501C501F6
:1010D000C501C601C601C601C601C701C701C701D6
:1010E000C701C801C801C801C801C901C901C901B6
:1010F000CA01CA01CA01CA01CB01CB01CB01CB0194
:10110000CC01CC01CC01CC01CD01CD01CD01CD0173
:10111000CE01CE01CE01CF01CF01CF01CF01D00151
:10112000D001D001D001D101D101D101D201D20130
:10113000D201D201D301D301D301D301D401D4010F
:10114000D401D401D501D501D501D601D601D601EE
:10115000D601D701D701D701D801D801D801D801CC
:10116000D901D901D901D901DA01DA01DA01DB01AA
:10117000DB01DB01DB01DC01DC01DC01DD01DD0188
:10118000DD01DD01DE01DE01DE01DE01DF01DF0167
:10119000DF01E001E001E001E001E101E101E10145
:1011A000E201E201E201E201E301E301E301E40122
:1011B000E401E401E401E501E501E501E601E60100
:1011C000E601E601E701E701E701E801E801E801DE
:1011D000E801E901E901E901EA01EA01EA01EB01BB
:1011E000EB01EB01EB01EC01EC01EC01ED01ED0198
:1011F000ED01ED01EE01EE01EE01EF01EF01EF0176
:10120000F001F001F001F001F101F101F101F20151
:10121000F201F201F201F301F301F301F401F4012F
:10122000F401F501F501F501F501F601F601F6010C
:10123000F701F701F701F801F801F801F801F901E8
:10124000F901F901FA01FA01FA01FB01FB01FB01C5
:10125000FC01FC01FC01FC01FD01FD01FD01FE01A1
:10126000FE01FE01FF01FF01FF010002000200027A
:101270000002010201020102020202020202030252
:10128000030203020402040204020502050205022D
:10129000050206020602060207020702070208020A
:1012A000080208020902090209020A020A020A02E5
:1012B0000B020B020B020C020C020C020C020D02C0
:1012C0000D020D020E020E020E020F020F020F029D
:1012D0001002100210021102110211021202120277
:1012E0001202130213021302140214021402150252
:1012F000150215021602160216021702170217022D
:101300001802180218021902190219021A021A0206
:101310001A021B021B021B021C021C021C021D02E1
:101320001D021D021E021E021E021F021F021F02BC
:101330002002200220022102210221022202220296
:101340002202230223022302240224022402250271
:10135000250225022602260226022702270227024C
:101360002802280228022902290229022A022A0226
:101370002B022B022B022C022C022C022D022D02FE
:101380002D022E022E022E022F022F022F023002D9
:1013900030023002310231023202320232023302B2
:1013A000330233023402340234023502350235028C
:1013B0003602360237023702370238023802380264
:1013C0003902390239023A023A023A023B023B023E
:1013D0003C023C023C023D023D023D023E023E0216
:1013E0003E023F023F0240024002400241024102EF
:1013F00041024202420242024302430244024402C8
:10140000440245024502450246024602470247029F
:101410004702480248024802490249024A024A0277
:101420004A024B024B024B024C024C024D024D024F
:101430004D024E024E024E024F024F025002500227
:1014400050025102510251025202520253025302FF
:1014500053025402540254025502550256025602D7
:1014600056025702570258025802580259025902AE
:1014700059025A025A025B025B025B025C025C0286
:101480005D025D025D025E025E025F025F025F025C
:101490006002600261026102610262026202630232
:1014A000630263026402640264026502650266020A
:1014B00066026602670267026802680268026902E1
:1014C00069026A026A026A026B026B026C026C02B7
:1014D0006C026D026D026E026E026F026F026F028D
:1014E0007002700271027102710272027202730262
:1014F0007302730274027402750275027502760239
:10150000760277027702780278027802790279020D
:101510007A027A027A027B027B027C027C027D02E2
:101520007D027D027E027E027F027F027F028002B8
:10153000800281028102820282028202830283028D
:101540008402840285028502850286028602870261
:101550008702870288028802890289028A028A0237
:101560008A028B028B028C028C028D028D028E020B
:101570008E028E028F028F029002900291029102DF
:1015800091029202920293029302940294029402B4
:101590009502950296029602970297029802980287
:1015A0009802990299029A029A029B029B029C025B
:1015B0009C029C029D029D029E029E029F029F022F
:1015C000A002A002A002A102A102A202A202A30202
:1015D000A302A402A402A502A502A502A602A602D5
:1015E000A702A702A802A802A902A902AA02AA02A7
:1015F000AA02AB02AB02AC02AC02AD02AD02AE027B
:10160000AE02AF02AF02AF02B002B002B102B1024D
:10161000B202B202B302B302B402B402B502B5021E
:10162000B602B602B602B702B702B802B802B902F1
:10163000B902BA02BA02BB02BB02BC02BC02BD02C2
:10164000BD02BE02BE02BE02BF02BF02C002C00295
:10165000C102C102C202C202C302C302C402C40266
:10166000C502C502C602C602C702C702C802C80236
:10167000C902C902C902CA02CA02CB02CB02CC0209
:10168000CC02CD02CD02CE02CE02CF02CF02D002DA
:10169000D002D102D102D202D202D302D302D402AA
:1016A000D402D502D502D602D602D702D702D8027A
:1016B000D802D902D902DA02DA02DB02DB02DC024A
:1016C000DC02DD02DD02DE02DE02DF02DF02E0021A
:1016D000E002E102E102E202E202E302E302E402EA
:1016E000E402E502E502E602E602E702E702E802BA
:1016F000E802E902E902EA02EA02EB02EB02EC028A
:10170000EC02ED02ED02EE02EE02EF02F002F00258
:10171000F102F102F202F202F302F302F402F40225
:10172000F502F502F602F602F702F702F802F802F5
:10173000F902F902FA02FA02FB02FC02FC02FD02C3
:10174000FD02FE02FE02FF02FF020003000301038E
:101750000103020302030303030304030503050358
:101760000603060307030703080308030903090325
:101770000A030A030B030C030C030D030D030E03F2
:101780000E030F030F0310031003110312031203C0
:10179000130313031403140315031503160316038D
:1017A000170318031803190319031A031A031B0359
:1017B0001B031C031D031D031E031E031F031F0326
:1017C00020032003210322032203230323032403F2
:1017D00024032503260326032703270328032803BE
:1017E000290329032A032B032B032C032C032D038A
:1017F0002D032E032F032F03300330033103310356
:10180000320333033303340334033503360336031F
:10181000370337033803380339033A033A033B03EA
:101820003B033C033C033D033E033E033F033F03B6
:10183000400341034103420342034303440344037F
:10184000450345034603460347034803480349034A
:1018500049034A034B034B034C034C034D034E0314
:101860004E034F034F0350035103510352035203DE
:1018700053035403540355035503560357035703A7
:101880005803580359035A035A035B035C035C0370
:101890005D035D035E035F035F0360036003610339
:1018A0006203620363036303640365036503660302
:1018B000670367036803680369036A036A036B03CA
:1018C0006C036C036D036D036E036F036F03700392
:1018D000710371037203720373037403740375035A
:1018E00076037603770378037803790379037A0321
:1018F0007B037B037C037D037D037E037F037F03E8
:1019000080038003810382038203830384038403AF
:101910008503860386038703880388038903890375
:101920008A038B038B038C038D038D038E038F033C
:101930008F03900391039103920393039303940302
:1019400095039503960397039703980399039903C7
:101950009A039B039B039C039D039D039E039F038C
:101960009F03A003A103A103A203A303A303A40352
:10197000A503A503A603A703A703A803A903A90317
:10198000AA03AB03AB03AC03AD03AD03AE03AF03DC
:10199000AF03B003B103B203B203B303B403B403A0
:1019A000B503B603B603B703B803B803B903BA0364
:1019B000BA03BB03BC03BD03BD03BE03BF03BF0328
:1019C000C003C103C103C203C303C403C403C503EB
:1019D000C603C603C703C803C803C903CA03CB03AE
:1019E000CB03CC03CD03CD03CE03CF03CF03D00372
:1019F000D103D203D203D303D403D403D503D60334
:101A0000D703D703D803D903DA03DA03DB03DC03F4
:101A1000DC03DD03DE03DF03DF03E003E103E103B7
:101A2000E203E303E403E403E503E603E703E70378
:101A3000E803E903E903EA03EB03EC03EC03ED033A
:101A4000EE03EF03EF03F003F103F203F203F303FA
:101A5000F403F503F503F603F703F803F803F903BA
:101A6000FA03FA03FB03FC03FD03FD03FE03FF037C
:101A70000004000401040204030404040404050433
:101A8000060407040704080409040A040A040B04F2
:101A90000C040D040D040E040F04100410041104B2
:101AA0001204130414041404150416041704170470
:101AB000180419041A041A041B041C041D041E042F
:101AC0001E041F04200421042104220423042404EE
:101AD00025042504260427042804290429042A04AB
:101AE0002B042C042C042D042E042F043004300469
:101AF0003104320433043404340435043604370426
:101B00003804380439043A043B043C043C043D04E2
:101B10003E043F044004400441044204430444049E
:101B200045044504460447044804490449044A045A
:101B30004B044C044D044D044E044F045004510416
:101B400052045204530454045504560457045704D1
:101B5000580459045A045B045B045C045D045E048D
:101B60005F04600460046104620463046404650447
:101B7000660466046704680469046A046B046B0401
:101B80006C046D046E046F047004710471047204BB
:101B90007304740475047604760477047804790475
:101BA0007A047B047C047C047D047E047F0480042E
:101BB00081048204830483048404850486048704E6
:101BC0008804890489048A048B048C048D048E049F
:101BD0008F04900490049104920493049404950457
:101BE000960497049704980499049A049B049C040F
:101BF0009D049E049F049F04A004A104A204A304C6
:101C0000A404A504A604A704A704A804A904AA047C
:101C1000AB04AC04AD04AE04AF04B004B104B10431
:101C2000B204B304B404B504B604B704B804B904E8
:101C3000BA04BB04BB04BC04BD04BE04BF04C0049E
:101C4000C104C204C304C404C504C604C604C70452
:101C5000C804C904CA04CB04CC04CD04CE04CF0408
:101C6000D004D104D204D304D304D404D504D604BC
:101C7000D704D804D904DA04DB04DC04DD04DE0470
:101C8000DF04E004E104E204E304E304E404E50423
:101C9000E604E704E804E904EA04EB04EC04ED04D8
:101CA000EE04EF04F004F104F204F304F404F50488
:101CB000F604F704F804F904F904FA04FB04FC043C
:101CC000FD04FE04FF0400050105020503050405EB
:101CD000050506050705080509050A050B050C0598
:101CE0000D050E050F051005110512051305140548
:101CF000150516051705180519051A051B051C05F8
:101D00001D051E051F0520052105220523052405A7
:101D1000250526052705280529052A052B052C0557
:101D20002D052E052F053005310532053305340507
:101D3000350536053705380539053A053B053C05B7
:101D40003D053E053F054005410542054305440567
:101D500046054705480549054A054B054C054D050F
:101D60004E054F05500551055205530554055505BF
:101D700056055705580559055A055B055C055E056E
:101D80005F05600561056205630564056505660517
:101D90006705680569056A056B056C056D056E05C7
:101DA000700571057205730574057505760577056F
:101DB000780579057A057B057C057E057F0580051C
:101DC00081058205830584058505860587058805C7
:101DD00089058B058C058D058E058F059005910570
:101DE00092059305940596059705980599059A051A
:101DF0009B059C059D059E05A005A105A205A305C3
:101E0000A405A505A605A705A805AA05AB05AC056B
:101E1000AD05AE05AF05B005B105B305B405B50513
:101E2000B605B705B805B905BA05BC05BD05BE05BB
:101E3000BF05C005C105C205C405C505C605C70562
:101E4000C805C905CA05CC05CD05CE05CF05D00509
:101E5000D105D205D405D505D605D705D805D905B0
:101E6000DB05DC05DD05DE05DF05E005E205E30554
:101E7000E405E505E605E705E905EA05EB05EC05FA
:101E8000ED05EF05F005F105F205F305F405F6059E
:101E9000F705F805F905FA05FC05FD05FE05FF0542
:101EA00000060206030604060506060607060906DE
:101EB0000A060B060C060E060F0610061106120681
:101EC000140615061606170618061A061B061C0623
:101ED0001D061E06200621062206230625062606C6
:101EE000270628062A062B062C062D062E06300667
:101EF00031063206330635063606370638063A0608
:101F00003B063C063D063F064006410642064406A7
:101F100045064606470649064A064B064C064E0647
:101F20004F065006510653065406550657065806E6
:101F300059065A065C065D065E065F066106620685
:101F4000630665066606670668066A066B066C0623
:101F50006E066F06700671067306740675067706C0
:101F6000780679067A067C067D067E06800681065E
:101F70008206840685068606880689068A068B06FA
:101F80008D068E068F069106920693069506960696
:101F9000970699069A069B069D069E069F06A10631
:101FA000A206A306A506A606A706A906AA06AB06CC
:101FB000AD06AE06AF06B106B206B306B506B60666
:101FC000B706B906BA06BC06BD06BE06C006C106FF
:101FD000C206C406C506C606C806C906CB06CC0698
:101FE000CD06CF06D006D106D306D406D606D70630
:101FF000D806DA06DB06DC06DE06DF06E106E206C8
:10200000E306E506E606E806E906EA06EC06ED065E
:10201000EF06F006F106F306F406F606F706F806F4
:10202000FA06FB06FD06FE06FF0601070207040787
:1020300005070607080709070B070C070E070F0718
:1020400010071207130715071607180719071B07AC
:102050001C071D071F072007220723072507260740
:10206000280729072A072C072D072F0730073207D3
:10207000330735073607380739073A073C073D0766
:102080003F074007420743074507460748074907F8
:102090004B074C074E074F07510752075407550788
:1020A000570758075A075B075C075E075F0761071A
:1020B000620764076507670769076A076C076D07AA
:1020C0006F07700772077307750776077807790738
:1020D0007B077C077E077F078107820784078507C8
:1020E000870788078A078B078D078F079007920756
:1020F000930795079607980799079B079C079E07E4
:10210000A007A107A307A407A607A707A907AA076F
:10211000AC07AE07AF07B107B207B407B507B707FB
:10212000B907BA07BC07BD07BF07C007C207C40786
:10213000C507C707C807CA07CC07CD07CF07D00711
:10214000D207D407D507D707D807DA07DC07DD079A
:10215000DF07E007E207E407E507E707E807EA0724
:10216000EC07ED07EF07F107F207F407F507F707AC
:10217000F907FA07FC07FE0706000600060006003E
:10218000060006000600060006000600060006001F
:10219000060006000600060006000600060006000F
:1021A00006000600060006000600060006000600FF
:1021B00006000600060006000600060006000600EF
:1021C00006000600060006000600060006000600DF
:1021D00006000600060006000600060006000600CF
:1021E00006000600060006000600060006000600BF
:1021F00006000600060006000600060006000600AF
:10220000060006000600060006000600060006009E
:10221000060006000600060006000600060006008E
:10222000060006000600060006000600060006007E
:10223000060006000600060006000600060006006E
:10224000060006000600060006000600060006005E
:102250000600060006000500050005000500050053
:102260000500050005000500050005000500050046
:102270000500050005000500050005000500050036
:102280000500050005000500050005000500050026
:102290000500050005000500050005000500050016
:1022A0000500050005000500050005000500050006
:1022B00005000500050005000500050005000500F6
:1022C00005000500050005000500050005000500E6
:1022D00005000500050005000500050005000500D6
:1022E00005000500050005000500050005000500C6
:1022F00005000500050005000500050005000500B6
:1023000005000500050005000500050005000500A5
:102310000500050005000500050005000500050095
:102320000500050005000500050005000500050085
:102330000500050005000500050005000500050075
:102340000500050005000500050005000500050065
:102350000500050005000500050005000500050055
:102360000500050005000500050005000500050045
:102370000500050005000500050005000500050035
:102380000500050005000500050005000500050025
:102390000500050005000500050005000500050015
:1023A0000500050005000500050005000500050005
:1023B00005000500050005000500050005000500F5
:1023C00005000500050005000500050005000500E5
:1023D00005000500050005000500050005000500D5
:1023E00005000500050005000500050005000500C5
:1023F00005000500050005000400040004000400B9
:1024000004000400040004000400040004000400AC
:10241000040004000400040004000400040004009C
:10242000040004000400040004000400040004008C
:10243000040004000400040004000400040004007C
:10244000040004000400040004000400040004006C
:10245000040004000400040004000400040004005C
:10246000040004000400040004000400040004004C
:10247000040004000400040004000400040004003C
:10248000040004000400040004000400040004002C
:10249000040004000400040004000400040004001C
:1024A000040004000400040004000400040004000C
:1024B00004000400040004000400040004000400FC
:1024C00004000400040004000400040004000400EC
:1024D00004000400040004000400040004000400DC
:1024E00004000400040004000400040004000400CC
:1024F00004000400040004000400040004000400BC
:1025000004000400040004000400040004000400AB
:10251000040004000400040004000400040004009B
:10252000040004000400040004000400040004008B
:10253000040004000400040004000400040004007B
:10254000040004000400040004000400040004006B
:10255000040004000400040004000400040004005B
:10256000040004000400040004000400040004004B
:10257000040004000400040004000400040004003B
:10258000040004000400040004000400040004002B
:10259000040004000400040004000400040004001B
:1025A000040004000400040004000400040004000B
:1025B00004000400040004000400040004000400FB
:1025C00004000400040004000400040004000400EB
:1025D00004000400040004000400040004000400DB
:1025E00004000400040004000400040004000400CB
:1025F00004000400040003000300030003000300C0
:1026000003000300030003000300030003000300B2
:1026100003000300030003000300030003000300A2
:102620000300030003000300030003000300030092
:102630000300030003000300030003000300030082
:102880000300030003000300020002000200020034
:102890000200020002000200020002000200020028
:1028A0000200020002000200020002000200020018
:1028B0000200020002000200020002000200020008
:1028C00002000200020002000200020002000200F8
:102C20000200020002000200010001000100010098
:102C3000010001000100010001000100010001008C
:102C4000010001000100010001000100010001007C
:102C5000010001000100010001000100010001006C
:102C6000010001000100010001000100010001005C
:104170000100010001000100BEF188F152F11CF1C3
:10418000E6F0B0F07AF044F00FF0D9EFA3EF6EEF65
:1041900038EF03EFCDEE98EE62EE2DEEF8EDC2EDC6
:1041A0008DED58ED23EDEEECB9EC84EC4FEC1AEC10
:1041B000E5EBB1EB7CEB47EB13EBDEEAA9EA75EA42
:1041C00041EA0CEAD8E9A3E96FE93BE907E9D3E85A
:1041D0009FE86BE837E803E8CFE79BE767E733E75B
:1041E00000E7CCE698E665E631E6FEE5CAE597E548
:1041F00063E530E5FDE4CAE496E463E430E4FDE31E
:10420000CAE397E364E331E3FFE2CCE299E266E2DA
:1042100034E201E2CFE19CE16AE137E105E1D3E07C
:10422000A0E06EE03CE00AE0D7DFA5DF73DF41DF0E
:104230000FDFDEDEACDE7ADE48DE16DEE5DDB3DD86
:1042400081DD50DD1EDDEDDCBCDC8ADC59DC28DCE8
:10425000F6DBC5DB94DBF3FFBAFF81FF48FF0FFFFE
:10426000D6FE9DFE64FE2BFEF2FDB9FD80FD48FDED
:104270000FFDD6FC9EFC65FC2DFCF5FBBCFB84FB16
:104280004BFB13FBDBFAA3FA6BFA33FAFBF9C3F926
:104290008BF953F91CF9E4F8ACF875F83DF805F81A
:1042A000CEF797F75FF728F7F1F6B9F682F64BF6F7
:1042B00014F6DDF5A6F56FF538F501F5CAF493F4BB
:1042C0005DF426F4EFF3B9F383F34CF315F3DFF267
:1042D000A9F273F23CF206F2D0F19AF164F12EF1F8
:1042E000F8F0C2F08CF056F021F0EBEFB5EF7FEF75
:1042F0004AEF15EFDFEEA9EE74EE3FEE09EED4EDD6
:104300009FED6AED35ED00EDCBEC96EC61EC2CEC1D
:10431000F7EBC2EB8EEB59EB24EBF0EABBEA87EA52
:1043200052EA1EEAE9E9B5E981E94DE918E9E4E86C
:10433000B0E87CE848E814E8E0E7ACE779E745E76F
:1043400011E7DDE6AAE676E643E60FE6DBE5A8E55B
:1043500075E541E50EE5DBE4A8E475E441E40EE42F
:10436000DBE3A8E375E343E310E3DDE2AAE277E2EF
:1043700045E212E2E0E1ADE17BE148E116E1E3E094
:10438000B1E07FE04DE01BE0E8DFB6DF84DF52DF25
:1043900020DFEEDEBDDE8BDE59DE27DEF5DDC4DD9F
:1043A00092DD61DD2FDDFDDCCCDC9BDC69DC38DC03
:1043B00007DCD6DBA5DB73DB42DB11DBE0DAAFDA4F
:1043C0007EDA4DDA1DDAECD9BBD98AD95AD929D986
:1043D000F9D8C8D897D867D837D806D8D6D7A6D7A7
:1043E00075D745D715D7E5D6B5D685D655D625D6B2
:1043F000F5D5C5D595D565D5DAFFA1FF68FF2FFFA7
:10440000F6FEBDFE84FE4BFE12FED9FDA0FD67FD4B
:104410002FFDF6FCBEFC85FC4DFC14FCDCFBA3FB75
:104420006BFB33FBFBFAC3FA8AFA52FA1AFAE2F987
:10443000ABF973F93BF903F9CBF894F85CF825F87C
:10444000EDF7B6F77EF747F710F7D8F6A1F66AF65C
:1044500033F6FCF5C5F58EF557F520F5E9F4B2F421
:104460007CF445F40EF4D8F3A1F36BF334F3FEF2CD
:10447000C7F291F25BF225F2EEF1B8F182F14CF164
:1044800016F1E0F0AAF075F03FF009F0D3EF9EEFDF
:1044900068EF33EFFDEEC8EE92EE5DEE27EEF2ED43
:1044A000BDED88ED53ED1EEDE8ECB3EC7FEC4AEC8E
:1044B00015ECE0EBABEB76EB42EB0DEBD9EAA4EAC3
:1044C00070EA3BEA07EAD2E99EE96AE936E901E9DE
:1044D000CDE899E865E831E8FDE7C9E796E762E7E6
:1044E0002EE7FAE6C7E693E65FE62CE6F8E5C5E5D3
:1044F00092E55EE52BE5F8E4C4E491E45EE42BE4A8
:10450000F8E3C5E392E35FE32CE3F9E2C7E294E268
:1045100061E22FE2FCE1C9E197E164E132E100E10F
:10452000CDE09BE069E037E004E0D2DFA0DF6EDFA2
:104530003CDF0ADFD8DEA7DE75DE43DE11DEE0DD1C
:10454000AEDD7CDD4BDD19DDE8DCB6DC85DC54DC82
:1045500022DCF1DBC0DB8FDB5EDB2DDBFCDACBDAD0
:104560009ADA69DA38DA07DAD6D9A6D975D944D908
:1045700014D9E3D8B3D882D852D821D8F1D7C1D72B
:1045800090D760D730D700D7D0D6A0D670D640D637
:1045900010D6E0D5B0D580D551D521D5F1D4C2D42F
:1045A00092D462D433D403D4D4D3A5D375D346D311
:1045B00017D3E7D2B8D289D25AD22BD2FCD1CDD1DF
:1045C0009ED16FD140D112D1E3D0B4D085D057D095
:1045D00028D0FACFCBCF9DCF6ECF40CF11CFE3CE37
:1045E000B5CE86CE58CE2ACEFCCDCECDA0CD72CDC6
:1045F00044CD16CDE8CCE9FFB0FF77FF3DFF05FFC6
:10460000CBFE92FE59FE21FEE8FDAFFD76FD3DFD9D
:1046100005FDCCFC94FC5BFC23FCEAFBB2FB79FBC4
:1046200041FB09FBD1FA99FA61FA29FAF1F9B9F9D2
:1046300081F949F911F9DAF8A2F86BF833F8FBF7C8
:10464000C4F78DF755F71EF7E7F6AFF678F641F6A3
:104650000AF6D3F59CF565F52EF5F7F4C1F48AF466
:1046600053F41CF4E6F3AFF379F342F30CF3D5F211
:104670009FF269F233F2FCF1C6F190F15AF124F1A4
:10468000EEF0B8F083F04DF017F0E1EFABEF76EF1E
:1046900040EF0BEFD5EEA0EE6BEE35EE00EECBED7E
:1046A00095ED60ED2BEDF6ECC1EC8CEC57EC23ECCA
:1046B000EDEBB9EB84EB4FEB1BEBE6EAB2EA7DEAFC
:1046C00049EA14EAE0E9ABE977E943E90FE9DBE815
:1046D000A7E873E83FE80BE8D7E7A3E76FE73BE716
:1046E00007E7D4E6A0E66DE639E606E6D2E59FE503
:1046F0006BE538E505E5D1E49FE46BE438E405E4D7
:10470000D2E39FE36CE339E307E3D4E2A1E26EE294
:104710003CE209E2D7E1A4E171E13FE10DE1DAE039
:10472000A8E076E043E011E0DFDFADDF7BDF49DFCB
:1047300017DFE5DEB3DE81DE50DE1EDEEDDDBBDD44
:1047400089DD58DD26DDF5DCC3DC92DC61DC2FDCA5
:10475000FEDBCDDB9BDB6BDB39DB08DBD7DAA6DAF4
:1047600075DA45DA14DAE3D9B2D981D951D920D929
:10477000F0D8BFD88FD85ED82ED8FDD7CDD79DD74B
:104780006DD73DD70CD7DCD6ACD67CD64CD61CD654
:10479000ECD5BDD58DD55DD52DD5FDD4CED49ED44B
:1047A0006FD43FD410D4E0D3B1D381D352D323D329
:1047B000F4D2C5D295D266D237D208D2D9D1AAD1F5
:1047C0007BD14DD11DD1EFD0C0D091D063D034D0AA
:1047D00005D0D7CFA9CF7ACF4CCF1DCFEFCEC1CE4A
:1047E00093CE64CE36CE08CEDACDACCD7ECD50CDD4
:1047F00022CDF4CCC6CC98CC6BCC3DCC0FCCE1CB4D
:10480000B4CB86CB59CB2BCBFECAD1CAA3CA76CAAE
:1048100049CA1BCAEEC9C1C994C967C939C90DC9FA
:10482000DFC8B3C886C859C82CC8FFC7D3C7A6C736
:1048300079C74DC720C7F3C6C7C69BC66EC641C65B
:1048400015C6E9C5BDC591C564C538C50CC5E0C46C
:10485000B4C488C45CC430C404C4D8C3ADC381C369
:1048600055C329C3FDC2D2C2A6C27BC24FC224C255
:10487000F9C1CDC1A2C176C14BC120C1F5C0C9C02B
:104880009EC073C048C01DC0EEFFB5FF7CFF42FF55
:1048900009FFD0FE97FE5EFE25FEEDFDB4FD7BFD1B
:1048A00042FD0AFDD1FC98FC60FC27FCEFFBB7FB46
:1048B0007EFB46FB0EFBD6FA9EFA66FA2EFAF6F956
:1048C000BEF986F94EF916F9DFF8A7F86FF838F84F
:1048D00000F8C9F791F75AF723F7EBF6B4F67DF62F
:1048E00046F60FF6D8F5A1F56AF533F5FCF4C5F4F4
:1048F0008EF458F421F4EAF3B4F37DF347F310F3A4
:10490000DAF2A4F26DF237F201F2CBF195F15FF138
:1049100029F1F3F0BDF087F051F01BF0E6EFB0EFB6
:104920007AEF45EF0FEFDAEEA4EE6FEE3AEE04EE1B
:10493000CFED9AED65ED30EDFBECC6EC91EC5CEC67
:1049400027ECF2EBBDEB89EB54EB1FEBEBEAB6EA9D
:1049500082EA4DEA19EAE4E9B0E97CE948E913E9B9
:10496000DFE8ABE877E843E80FE8DBE7A7E774E7C1
:1049700040E70CE7D8E6A5E671E63EE60AE6D7E5AD
:10498000A3E570E53CE509E5D6E4A3E470E43DE485
:1049900009E4D6E3A3E371E33EE30BE3D8E2A5E247
:1049A00073E240E20DE2DBE1A8E176E143E111E1EF
:1049B000DFE0ACE07AE048E016E0E4DFB1DF7FDF83
:1049C0004DDF1BDFEADEB8DE86DE54DE22DEF1DDFF
:1049D000BFDD8DDD5CDD2ADDF9DCC7DC96DC65DC66
:1049E00033DC02DCD1DBA0DB6FDB3EDB0CDBDBDAB4
:1049F000ABDA7ADA49DA18DAE7D9B6D986D955D9ED
:104A000024D9F4D8C3D893D862D832D802D8D1D711
:104A1000A1D771D741D710D7E0D6B0D680D650D61F
:104A200020D6F0D5C1D591D561D531D502D5D2D416
:104A3000A2D473D443D414D4E4D3B5D385D356D3FA
:104A400027D3F8D2C8D299D26AD23BD20CD2DDD1C8
:104A5000AED17FD150D122D1F3D0C4D095D067D080
:104A600038D009D0DBCFACCF7ECF50CF21CFF3CE23
:104A7000C5CE96CE68CE3ACE0CCEDECDB0CD82CDB0
:104A800054CD26CDF8CCCACC9CCC6ECC41CC13CC2A
:104A9000E5CBB8CB8ACB5DCB2FCB02CBD4CAA7CA90
:104AA0007ACA4CCA1FCAF2C9C5C998C96AC93DC9E0
:104AB00010C9E3C8B6C88AC85DC830C803C8D6C71D
:104AC000AAC77DC750C724C7F7C6CBC69EC672C645
:104AD00045C619C6EDC5C0C594C568C53CC510C559
:104AE000E4C4B8C48CC460C434C408C4DCC3B0C358
:104AF00084C359C32DC301C3D6C2AAC27FC253C245
:104B000028C2FCC1D1C1A5C17AC14FC124C1F8C01E
:104B1000CDC0A2C077C04CC021C0F6BFCBBFA0BFE4
:104B200075BF4ABF20BFF5BECABE9FBE75BE4ABE96
:104B300020BEF5BDCBBDA0BD76BD4BBD21BDF7BC34
:104B4000CCBCA2BC78BC4EBC24BCFABBD0BBA6BBC0
:104B50007CBB52BB28BBFEBAD4BAAABA80BA57BA39
:104B60002DBA03BADAB9B0B987B95DB934B90AB99F
:104B7000E1B8B8B88EB865B83CB812B8E9B7C0B7F4
:104B800097B76EB745B71CB7F3B6CAB6A1B678B635
:104B90004FB627B6FEB5D5B5ADB584B55BB533B563
:104BA0000AB5E2B4B9B491B468B440B418B4EFB380
:104BB000C7B39FB377B34FB327B3FEB2D6B2AEB28B
:104BC00086B25FB237B20FB2E7B1BFB197B170B181
:104BD00048B120B1F9B0D1B0AAB082B05BB033B067
:104BE0000CB0E4AFBDAF96AF6EAF47AF20AFF9AE3C
:104BF000D2AEAAAE83AE5CAE35AE0EAEE7ADC1AD01
:104C00009AAD73AD4CAD25ADFFACD8ACB1AC8BACAF
:104C100064AC3DAC17ACF0ABCAABA3AB7DAB57AB50
:104C200030AB0AABE4AABEAAE3FFABFF71FF38FFCB
:104C3000FFFEC6FE8DFE54FE1BFEE2FDA9FD71FDCA
:104C400038FDFFFCC7FC8EFC55FC1DFCE5FBADFBF5
:104C500074FB3CFB04FBCBFA93FA5BFA23FAEBF907
:104C6000B3F97CF944F90CF9D5F89DF865F82DF8FD
:104C7000F6F7BFF787F750F719F7E1F6AAF673F6DC
:104C80003BF605F6CDF597F55FF529F5F2F4BBF4A3
:104C900085F44DF417F4E1F3AAF373F33DF307F34E
:104CA000D0F29AF263F22DF2F7F1C1F18BF155F1E6
:104CB0001FF1E9F0B3F07DF047F011F0DCEFA7EF62
:104CC00071EF3BEF05EFD0EE9BEE65EE30EEFBEDC6
:104CD000C5ED91ED5BED26EDF1ECBCEC87EC52EC13
:104CE0001DECE9EBB4EB7FEB4BEB15EBE1EAADEA46
:104CF00078EA43EA0FEADBE9A7E973E93EE90AE962
:104D0000D6E8A1E86DE839E805E8D2E79EE76AE76A
:104D100037E703E7CFE69BE668E634E601E6CDE554
:104D20009AE567E533E500E5CDE499E467E433E42B
:104D300000E4CDE39BE367E335E301E3CFE29CE2EC
:104D400069E237E204E2D1E19FE16DE13AE108E195
:104D5000D5E0A3E071E03FE00DE0DBDFA9DF77DF26
:104D600045DF13DFE1DEAFDE7DDE4BDE19DEE7DDA2
:104D7000B6DD85DD53DD21DDF0DCBFDC8DDC5CDC08
:104D80002BDCF9DBC8DB97DB65DB35DB03DBD3DA58
:104D9000A1DA71DA40DA0FDADFD9ADD97DD94CD991
:104DA0001BD9EBD8BBD88AD859D829D8F9D7C9D7B5
:104DB00099D768D738D707D7D7D6A7D677D647D6C3
:104DC00017D6E7D5B8D588D559D529D5F9D4C9D4BA
:104DD00099D46AD43BD40BD4DBD3ADD37DD34DD39C
:104DE0001FD3EFD2C0D291D261D233D203D2D5D168
:104DF000A5D177D148D119D1EBD0BBD08DD05FD020
:104E00002FD001D0D3CFA4CF75CF47CF19CFEBCEC2
:104E1000BCCE8ECE60CE31CE03CED5CDA7CD79CD52
:104E20004BCD1DCDEFCCC1CC94CC66CC39CC0BCCCA
:104E3000DDCBAFCB82CB55CB27CBF9CACCCA9FCA2F
:104E400071CA44CA17CAE9C9BDC98FC963C935C97E
:104E500008C9DBC8AFC881C855C827C8FBC7CEC7BB
:104E6000A1C775C749C71BC7EFC6C3C696C66AC6E2
:104E70003DC611C6E5C5B9C58CC560C534C508C5F4
:104E8000DBC4AFC483C457C42CC400C4D4C3A8C3F8
:104E90007DC351C325C3F9C2CEC2A2C277C24BC2E1
:104EA0001FC2F5C1C9C19DC172C147C11BC1F1C0BB
:104EB000C5C09AC06FC044C019C0EEBFC3BF99BF80
:104EC0006DBF43BF18BFEDBEC3BE97BE6DBE43BE30
:104ED00018BEEDBDC3BD99BD6EBD43BD19BDEFBCD0
:104EE000C5BC9BBC71BC46BC1CBCF2BBC8BB9EBB5A
:104EF00074BB4ABB20BBF7BACDBAA3BA79BA4FBAD2
:104F000025BAFCB9D3B9A9B97FB955B92CB903B938
:104F1000D9B8B0B887B85DB834B80BB8E2B7B9B78C
:104F20008FB767B73DB715B7EBB6C3B69AB671B6CC
:104F300048B61FB6F7B5CEB5A5B57DB554B52BB5FA
:104F400003B5DBB4B2B489B461B439B411B4E8B315
:104F5000C0B397B36FB347B31FB3F7B2CFB2A7B223
:104F60007FB257B22FB207B2E0B1B8B190B169B118
:104F700041B119B1F1B0CAB0A3B07BB053B02CB0FD
:104F800005B0DDAFB6AF8FAF67AF40AF19AFF1AED1
:104F9000CBAEA3AE7DAE55AE2FAE07AEE1ADB9AD93
:104FA00093AD6CAD45AD1FADF7ACD1ACAAAC83AC45
:104FB0005DAC37AC10ACE9ABC3AB9DAB76AB50ABE3
:104FC00029AB03ABDDAAB7AA91AA6BAA44AA1EAA71
:104FD000F8A9D2A9ACA986A960A93BA915A9EFA8EF
:104FE000C9A8A3A87DA857A832A80DA8E7A7C1A75C
:104FF0009BA776A751A72BA706A7E1A6BBA696A6B7
:1050000071A64BA626A601A6DCA5B7A592A56DA5FF
:1050100047A523A5FEA4D9A4B4A48FA46BA445A43A
:1050200021A4FCA3D7A3B3A38EA369A345A321A363
:10503000FCA2D7A2B3A28FA26BA246A221A2FDA17D
:10504000D9A1B5A191A16DA149A125A101A1DDA081
:10505000B9A095A071A04DA029A005A0E19FBD9F7A
:10506000999F769F539F2F9F0B9FE79EC49EA19E63
:105070007D9E599E369E139EEF9DCC9DA99D859D3C
:10508000629D3F9D1C9DF99CD59CB39C8F9C6D9C03
:10509000499C279C039CE19BBE9B9B9B789B559BBB
:1050A000339B109BED9ACB9AA89A859A639A409A63
:1050B0001D9AFB99D999B799949971994F992D99FE
:1050C0000B99E998C798A498829860983E981B9885
:1050D000F997D797B5979497729750972E970D9702
:1050E000EB96C996A7968596639642962196FF956C
:1050F000DD95BC959B957995579536951595F394C7
:10510000D294B1948F946E944D942B940B94E99314
:10511000C993A79387936593459323930393E19250
:10512000C192A0927F925F923D921D92FC91DB9181
:10513000BB919B917991599139911891F790D790A2
:10514000B79097907690569035901590F58FD58FB3
:10515000B58F958F758F558F358F148FF48ED58EB3
:10516000B58E958E758E558E358E158EF58DD58DA9
:10517000B58D968D778D578D378D178DF88CD98C91
:10518000B98C998C7A8C5B8C3B8C1C8CFD8BDD8B69
:10519000BE8B9F8B7F8B608B418B228B038BE38A33
:1051A000C58AA58A878A678A498A298A0B8AEC89EF
:1051B000CD89AE898F897189528933891589F5889E
:1051C000D788B9889A887B885D883F88208801883D
:1051D000E387C587A687888769874B872D870F87D1
:1051E000F186D386B486968678865A863B861D8657
:1051F000FF85E185C485A68588856A854D852F85CF
:105200001185F384D584B78499847C845F84418438
:1052100023840584E883CB83AD838F837383558395
:1052200037831A83FD82DF82C282A58288826B82E5
:105230004D8230821382F681D981BC819F81828127
:10524000658148812B810E81F180D580B7809B805C
:105250007E806180458028800B80EF7FD27FB57F84
:10526000997F7C7F5F7F437F277F0B7FEE7ED17EA0
:10527000B57E997E7D7E607E447E277E0B7EEF7DAF
:10528000D37DB77D9B7D7F7D637D477D2B7D0F7DAE
:10529000F37CD77CBB7C9F7C837C677C4B7C2F7CA6
:1052A000137CF87BDC7BC17BA57B897B6D7B527B90
:1052B000377B1B7BFF7AE37AC87AAD7A917A767A6C
:1052C0005B7A3F7A237A097AED79D279B7799B793B
:1052D000807965794A792F791379F978DD78C378FF
:1052E000A7788D78717857783B7821780678EB77B6
:1052F000D077B5779B77807765774B772F77157762
:10530000FB76DF76C576AB76907675765B76417602
:1053100026760B76F175D775BD75A27588756D7596
:10532000537539751F750575EB74D174B6749C741B
:10533000827468744E7434741A740074E673CC7397
:10534000B27398737F7365734B7331731773FD7208
:10535000E372CA72B17297727D7263724A7230726E
:105360001772FD71E371CA71B17197717E716571C8
:105370004B7132711971FF70E670CD70B3709A7015
:10538000817068704F7035701D700370EB6FD16F56
:10539000B96F9F6F876F6D6F556F3B6F236F0A6F8C
:1053A000F16ED86EBF6EA76E8E6E756E5D6E436EBB
:1053B0002B6E136EFA6DE16DC96DB06D976D7F6DDB
:1053C000676D4E6D356D1D6D056DED6CD46CBB6CF0
:1053D000A36C8B6C736C5B6C426C2A6C126CF96BFB
:1053E000E16BC96BB16B996B816B696B516B396BFD
:1053F000216B096BF16AD96AC16AA96A916A796AF3
:10540000626A4A6A336A1B6A036AEB69D369BB69D9
:10541000A4698D6975695D6945692E691769FF68B9
:10542000E768D068B968A1688A6873685B68436890
:105430002D681568FE67E767CF67B867A16789675A
:1054400073675B6745672D671667FF66E866D16619
:10545000BA66A3668C6675665E66476631661966CF
:105460000366EC65D565BF65A76591657A6563657B
:105470004D6536651F650965F264DB64C564AF641C
:10548000986481646B6455643E6427641164FB63B3
:10549000E563CE63B863A1638B6375635F63496340
:1054A00033631C630663EF62D962C362AD629762C5
:1054B00081626B6255623F6229621362FD61E7613E
:1054C000D161BB61A66190617A6165614F613961AB
:1054D00023610D61F760E260CC60B760A1608B6012
:1054E000756060604B6035601F600A60F55FDF5F6C
:1054F000C95FB45F9F5F895F745F5F5F495F345FBF
:105500001F5F095FF45EDF5EC95EB55E9F5E8A5E07
:10551000755E605E4B5E355E215E0B5EF75DE15D44
:10552000CD5DB75DA35D8D5D795D635D4F5D3A5D7A
:10553000255D115DFB5CE75CD25CBD5CA95C935CA6
:105540007F5C6A5C555C415C2D5C175C035CEF5BC7
:10555000DA5BC55BB15B9D5B885B735B5F5B4B5BE1
:10556000365B215B0D5BF95AE55AD05ABC5AA75AF3
:10557000935A7F5A6B5A575A435A2E5A1A5A065AF6
:10558000F159DD59C959B559A1598D5979596559FB
:1055900051593D59295915590159ED58D958C558EE
:1055A000B2589E588A58775863584F583B582758D6
:1055B00013580058EC57D957C557B1579D578A57BC
:1055C000775763574F573C57295715570157EE5692
:1055D000DB56C756B356A0568D5679566656535667
:1055E0003F562C5619560556F355DF55CC55B9552F
:1055F000A55593557F556C555955465533552055EE
:105600000D55F954E754D354C154AE549B548854A7
:10561000755462544F543D54295417540454F15353
:10562000DF53CB53B953A653935381536E535B53FC
:105630004953365323531153FF52EB52D952C75299
:10564000B452A1528F527D526A525852455233522F
:1056500021520E52FC51E951D751C551B351A151BC
:105660008E517C51695157514551335121510F5140
:10567000FD50EB50D950C650B450A25090507E50BF
:105680006C505A5048503650245012500150EF4F31
:10569000DD4FCB4FB94FA74F954F834F714F604FA1
:1056A0004E4F3D4F2B4F194F074FF54EE44ED24E04
:1056B000C14EAF4E9D4E8B4E7A4E694E574E454E63
:1056C000344E234E114EFF4DEE4DDD4DCB4DBA4DB8
:1056D000A94D974D864D754D634D524D414D2F4D02
:1056E0001E4D0D4DFB4CEA4CD94CC84CB74CA54C4B
:1056F000954C834C724C614C504C3F4C2E4C1D4C85
:105700000B4CFB4BE94BD94BC84BB74BA64B954BBE
:10571000844B734B634B514B414B2F4B1F4B0E4BE9
:10572000FD4AED4ADC4ACB4ABB4AA94A994A884A13
:10573000774A674A564A454A354A254A144A034A2F
:10574000F349E249D149C149B149A0498F497F494B
:105750006F495F494E493D492D491D490D49FC4856
:10576000EB48DB48CB48BB48AB489B488A487A4863
:105770006948594849483948294819480948F94762
:10578000E947D947C847B847A8479847884778475F
:105790006847584748473847294719470947F9464E
:1057A000E946D946C946B946A946994689467A4640
:1057B0006A465B464B463B462B461B460C46FC4521
:1057C000ED45DD45CD45BD45AE459F458F457F4502
:1057D00070456145514541453145234513450345D4
:1057E000F444E544D544C544B744A74497448844A9
:1057F000794469445B444B443B442D441D440E446E
:10580000FF43EF43E143D143C243B343A343954333
:10581000854377436743584349433A432B431C43EB
:105820000D43FE42EF42E042D142C242B342A442A3
:1058300095428742774269425A424B423C422D424E
:105840001F420F420142F241E341D541C641B741F7
:10585000A9419A418B417D416E415F415141424195
:105860003341254116410741F940EB40DC40CD4032
:10587000BF40B140A24093408540774069405A40C4
:105880004B403D402F40214012400340F53FE73F51
:10589000D93FCB3FBD3FAE3FA03F913F833F753FD8
:1058A000673F593F4B3F3D3F2E3F203F123F043F54
:1058B000F63EE73ED93ECB3EBD3EAF3EA13E933ED7
:1058C000853E773E693E5B3E4D3E3F3E313E243E47
:1058D000163E083EFA3DED3DDF3DD13DC33DB53DB1
:1058E000A73D993D8B3D7E3D703D633D553D473D18
:1058F000393D2B3D1D3D103D033DF53CE73CD93C7A
:10590000CC3CBF3CB13CA33C953C883C7B3C6D3CD3
:105910005F3C523C453C373C293C1C3C0F3C013C25
:10592000F33BE73BD93BCB3BBE3BB13BA33B963B79
:10593000893B7B3B6E3B613B533B473B393B2B3BBE
:105940001F3B113B043BF73AE93ADD3ACF3AC23A02
:10595000B53AA83A9B3A8D3A813A733A673A593A3E
:105960004D3A3F3A323A253A183A0B3AFE39F13974
:10597000E539D739CB39BD39B139A33997398A39A6
:105980007D3970396339573949393D3930392339CF
:1059900017390939FD38F038E338D738CA38BD38F7
:1059A000B138A43897388B387E3871386538583814
:1059B0004B383F383238253819380D380038F3372E
:1059C000E737DB37CE37C137B537A9379C378F3745
:1059D000833777376B375E375137453739372D3750
:1059E000203714370737FB36EF36E336D736CA365B
:1059F000BE36B136A53699368D368136753669365E
:105A00005C365036443637362B361F36133607365B
:105A1000FB35EF35E335D735CB35BF35B335A73556
:105A20009B358F35833577356B355F355335473546
:105A30003B352F35233517350B350035F434E83435
:105A4000DC34D134C534B934AD34A134953489341F
:105A50007E34723467345B344F34433437342C34FF
:105A6000203415340934FD33F133E633DB33CF33DF
:105A7000C333B733AC33A133953389337E337333B8
:105A800067335B335033453339332D332233173388
:105A90000B330033F532E932DD32D232C732BB325A
:105AA000B032A53299328E32833277326C32613223
:105AB00055324B323F32343229321D3212320732E4
:105AC000FC31F131E531DB31CF31C431B931AE31A7
:105AD000A33197318D31813177316B31603155315F
:105AE0004A313F31343129311E3113310831FD3013
:105AF000F230E730DD30D130C730BB30B130A530C7
:105B00009B30903085307A306F30653059304F306F
:105B1000443039302F30233019300E300330F92F14
:105B2000EE2FE32FD92FCE2FC32FB92FAE2FA32FB8
:105B3000992F8E2F832F792F6E2F632F592F4E2F52
:105B4000432F392F2F2F242F192F0F2F052FF92EE9
:105B5000EF2EE52EDA2ED02EC52EBB2EB12EA62E80
:105B60009B2E912E872E7C2E722E672E5D2E532E0D
:105B7000492E3E2E332E292E1F2E152E0B2E002E93
:105B8000F52DEB2DE12DD72DCD2DC32DB82DAE2D1F
:105B9000A32D992D8F2D852D7B2D712D672D5D2D9D
:105BA000532D482D3E2D342D2A2D1F2D152D0B2D17
:105BB000012DF72CED2CE32CD92CCF2CC52CBB2C94
:105BC000B12CA72C9D2C932C892C7F2C752C6B2C05
:105BD000612C572C4D2C432C392C302C262C1C2C72
:105BE000122C092CFF2BF52BEB2BE12BD72BCD2BDC
:105BF000C32BBA2BB02BA62B9D2B932B892B7F2B42
:105C0000752B6C2B622B592B4F2B452B3B2B312BA0
:105C1000282B1F2B152B0B2B012BF82AEE2AE52AFC
:105C2000DB2AD12AC82ABE2AB52AAB2AA12A982A59
:105C30008F2A852A7B2A722A692A5F2A552A4C2AAA
:105C4000432A392A2F2A262A1D2A132A0A2A012AF8
:105C5000F729EE29E529DB29D129C929BF29B52949
:105C6000AD29A3299929912987297D2975296B298E
:105C7000622959294F2946293D2933292B292129D0
:105C800018290F290529FD28F328EA28E128D82812
:105C9000CF28C528BD28B328AB28A12898288F284D
:105CA00086287D2874286B28612859284F28472882
:105CB0003D2835282B282328192811280728FF27B5
:105CC000F627ED27E427DB27D227C927C127B727E7
:105CD000AF27A5279D2794278B2782277927712710
:105CE00067275F2756274D2745273B2733272A2736
:105CF0002127192710270727FF26F526ED26E52659
:105D0000DB26D326CA26C126B926B026A7269F267B
:105D100097268D2685267D2674266B2663265A2691
:105D200051264926412637262F2627261E261526A8
:105D30000D260526FC25F325EB25E325DA25D125BF
:105D4000C925C125B925B025A7259F2597258E25CD
:105D500085257D2575256D2564255C2553254B25D9
:105D600043253B2532252A252125192511250925DD
:105D70000125F824F024E724DF24D724CF24C724E6
:105D8000BF24B624AE24A5249D2495248D248524E7
:105D90007D2475246D2465245C2454244C244324E0
:105DA0003B2433242B2423241B2413240B240324DB
:105DB000FB23F323EB23E323DB23D323CB23C323D3
:105DC000BB23B323AB23A3239B2393238B238323C3
:105DD0007B2373236B2363235B2353234B234323B3
:105DE0003B2334232C2324231C2315230D23052399
:105DF000FD22F522ED22E522DD22D622CE22C62288
:105E0000BF22B722AF22A7229F2297229022882268
:105E1000812279227122692261225A2252224B2246
:105E200043223B2233222C2225221D2215220D2221
:105E30000522FE21F721EF21E721DF21D821D12101
:105E4000C921C121BA21B321AB21A3219C219521D4
:105E50008D2185217D2177216F21672160215921A5
:105E60005121492142213B2133212B2125211D2173
:105E700015210E210721FF20F820F120E920E22042
:105E8000DB20D320CB20C520BD20B520AF20A7200C
:105E9000A020992091208A2083207B2074206D20CF
:105EA00065205F2057205020492041203A20332090
:105EB0002C2025201D2016200F2008200120F91F4E
:105EC000F31FEB1FE41FDD1FD61FCF1FC71FC11F0E
:105ED000B91FB31FAB1FA41F9D1F961F8F1F881FC5
:105EE000811F791F731F6B1F651F5D1F571F4F1F7A
:105EF000491F411F3B1F331F2D1F251F1F1F171F2A
:105F0000111F0A1F031FFC1EF51EEE1EE71EE01EDA
:105F1000D91ED31ECB1EC51EBD1EB71EB01EA91E88
:105F2000A31E9B1E951E8D1E871E801E791E731E2E
:105F30006B1E651E5E1E571E511E491E431E3C1ED3
:105F4000351E2F1E281E211E1B1E131E0D1E061E73
:105F5000FF1DF91DF21DEB1DE51DDE1DD71DD11D19
:105F6000CA1DC31DBD1DB61DAF1DA91DA21D9B1DB4
:105F7000951D8E1D871D811D7B1D731D6D1D671D4C
:105F8000601D591D531D4D1D451D3F1D391D321DE1
:105F90002B1D251D1F1D181D111D0B1D051DFE1C74
:105FA000F71CF11CEB1CE41CDD1CD71CD11CCA1C0B
:105FB000C41CBD1CB71CB11CAA1CA31C9D1C971C97
:105FC000911C8A1C831C7D1C771C711C6A1C641C20
:105FD0005D1C571C511C4B1C441C3E1C371C311CA7
:105FE0002B1C251C1F1C181C111C0B1C051CFF1B2B
:105FF000F91BF31BEC1BE61BDF1BD91BD31BCD1BB3
:10600000C71BC11BBB1BB41BAE1BA71BA11B9B1B30
:10601000951B8F1B891B831B7D1B771B701B6A1BAA
:10602000641B5E1B571B511B4B1B451B3F1B391B26
:10603000331B2D1B271B211B1B1B151B0F1B091B98
:10604000031BFD1AF71AF11AEB1AE51ADF1AD91A0F
:10605000D31ACD1AC71AC11ABB1AB51AAF1AA91A80
:10606000A31A9D1A971A911A8B1A851A7F1A791AF0
:10607000731A6D1A671A611A5B1A551A4F1A491A60
:10608000441A3E1A381A321A2D1A271A211A1B1AC4
:10609000151A0F1A091A031AFD19F819F219EC1931
:1060A000E719E119DB19D519CF19C919C319BE1997
:1060B000B819B319AD19A719A1199B1995199019F8
:1060C0008B1985197F19791973196D196819631955
:1060D0005D19571951194B19461941193B193519B1
:1060E0002F192A1924191F19191913190D1908190B
:1060F0000319FD18F718F118EC18E718E118DB1868
:10610000D618D118CB18C518BF18BA18B518AF18BB
:10611000A918A4189F18991893188E18891883180D
:106120007D18781873186D18671862185D1857185D
:1061300052184D18471841183C18371831182C18A8
:10614000271821181B18161811180B1806180118F3
:10615000FB17F617F117EB17E617E117DB17D61742
:10616000D117CB17C617C117BB17B617B117AB1787
:10617000A617A1179B1796170000000620064006D9
:1061800060068006000505050504040404030303F6
:1061900003030303030202020201010101010008DB
:1061A00004020108040201804020100804020108D2
:1061B000040201100804020100100F0E0D0A090864
:1061C000071A191817161514130000000000000014
:1061D0000000FFFFFFFFFFFFFFFFFFFFFFFFFFFFCD
:1061E000FFFFFF0100FFFFFFFFFFFFFF00000008B0
:1061F000000800080008000000000009000900096C
:10620000000900000000000A000A000A000A00005D
:10621000000000000000000000000000000000007E
:10622000000000000000000000000000000000006E
:1062300000000000000000000000000040084008CE
:1062400000000000000000004009400900000000BC
:10625000000000000000000000000000000000003E
:10626000000000000000000000000000000000002E
:10627000000000000000000000000000000000001E
:10628000000000000000000000000000000000000E
:1062900000000000000000000000000000000008F6
:1062A00000080008000800080008000800080009AD
:1062B000000900090009000900090009000900009F
:1062C00001020300010001020300010001020300BA
:1062D000010001020304050607000102030405068C
:1062E000070B0A0908040302010011241FBECFEFA7
:1062F000DFE2DEBFCDBF10E2A0E0B0E2E0E4FCE60A
:1063000002C005900D92A031B107D9F710E2A0E1CB
:10631000B0E201C01D92AF34B107E1F70E948833AB
:106320000C941E360C940000809150008460809381
:1063300050008091510082FFFCCF80915600897FF0
:10634000E0E5F0E0868380916000816080936000EA
:106350008091510081FFFCCF0895E0E4F8E081E0F6
:1063600080838181887F8360818383E090E086AB36
:1063700097AB88ECE0E8F1E086838DE061E00E9475
:10638000CE32E0E0F8E08EE080838181887F836018
:1063900081838181806881838FEF9FE886AB97AB93
:1063A0008AE090E080933E0890933F08089581E151
:1063B0006CE070E00E94C6320E9494310E94AD31C0
:1063C00088E00E945E3223E0880F991F2A95E1F74A
:1063D000AA2797FDA095BA2F8093102090931120A3
:1063E000A0931220B09313200895880F991FFC01E9
:1063F000E858FE4D2591349188589E4BFC018591BB
:10640000949140910B08417171F040914B0840FD0F
:10641000F8CF09C080910B0880FDFCCF82E0E0E45A
:10642000F8E080870895E0E0F8E086AB97AB9695BA
:1064300087959695879580933E0890933F08E0E472
:10644000F8E082E0818726AB37ABE4CF88E00E949A
:106450005E32BC01A3E0660F771FAA95E1F780E0EA
:1064600090E02FEF3FEF40E050E00E94FF359C01AD
:106470004427552720931020309311204093122059
:1064800050931320E3E19695879577956795EA9564
:10649000D1F7CB019F702091250321FF0CC0FC0197
:1064A000EE0FFF1FE858FE4F259134913F70209367
:1064B0003A0330933B030E94F53108958C30C8F5C0
:1064C000E82FF0E0EF51FD4925913491E0E0F2E052
:1064D000809101028061818380910020803121F4CC
:1064E00080E482838FE104C08295807F828383E091
:1064F00080A3220F220F220F2460E0E0F2E021A30C
:1065000080912002806880A38091230280FFFCCFCD
:1065100081E0E0E0F2E083A380911002909111020B
:10652000282F392F37FF02C020E030E0220F331F21
:1065300002C02FEF3FEFC9010895CF93DF93E82FFB
:10654000F0E0EE52FE49E491A0E2B3E08C918D7E42
:106550008C938C91F0E08160EF01CF5FDF4D9881EB
:10656000892B8C9380E411968C93119788E0129676
:106570008C931297ED5FFF4DE081F0E0E05EFC4F01
:106580007F7060837183DF91CF910895E4E0660F9F
:10659000771FEA95E1F70E949D320895EF92FF92EE
:1065A0001F93DF93CF930F92CDB7DEB7E82EFF2472
:1065B000F701E256FE491491812F69830E948F33BF
:1065C00097012C573E49F901949169819923B1F1C2
:1065D000E92FF0E0EE0FFF1FE858FE4925913491B6
:1065E000D901205F3F4F9FB7F894662339F4129684
:1065F0001C931297F901E80FF11D1CC0633049F498
:1066000012961C931297F901E80FF11D80818061A9
:1066100013C0E82FF0E0623041F412961C931297F9
:10662000E20FF31F8081886107C011961C931197B8
:10663000E20FF31F8081877C80839FBF0F90CF91F3
:10664000DF911F91FF90EF9008951F93CF93DF93F9
:1066500090E0EC01C854DE49FE012491FC01E256B1
:10666000FE4914918C579E49FC018491882309F4BA
:1066700048C0222309F437C0C22FD0E09E01220F68
:10668000331FF901E451FE4945915491DA01F901B2
:10669000EE5CFD496591749128583D49F901459199
:1066A0005491C254DD49FE0125913491109719F49B
:1066B000DB01109731F011969C91119740E150E069
:1066C00008C0DA01109779F011969C91119741E07A
:1066D00050E002C0440F551F2A95E2F74095492328
:1066E00011964C931197E82FF0E0EE0FFF1FE8583A
:1066F000FE4925913491F9018085812321E030E024
:1067000011F420E030E0C901DF91CF911F9108958D
:106710000E949B350E94D7310E942632FDCF8031E6
:10672000A9F0813138F4843069F0883069F0823022
:1067300039F414C0803471F0803871F0803241F047
:1067400080E0089582E0089583E0089584E008954C
:1067500085E0089586E0089587E0089581E0089532
:106760009F92AF92BF92CF92DF92EF92FF920F93E0
:106770001F93CF93DF935B018A3108F04DC0453002
:10678000510540F4FA01EE0FFF1FEB5FFF4DE08073
:10679000F18002C0EE24FF2490E0FC01EC57FE499A
:1067A000049110E0F801EE0FFF1FE858FE49259113
:1067B0003491C22EE6016E01D32EE60120E1C22EF5
:1067C000D12CCC0EDD1E82569E49FC019490892D61
:1067D0000E948F33D801119793E0AA0FBB1F9A959F
:1067E000E1F7E82FF0E0AE0FBF1FAA0FBB1FA95EB5
:1067F000BF4DAD92BC9211978985846089878B8546
:1068000089298B87EC0DFD1D80818E2980838885E9
:10681000F801EC5EFF4D8083DF91CF911F910F91C6
:10682000FF90EF90DF90CF90BF90AF909F90089532
:106830006F927F928F929F92AF92BF92CF92DF9290
:10684000EF92FF920F931F93CF93DF93FC01EE0F14
:10685000FF1FE858FE4925913491E22EE7017E01A1
:10686000F32EE701D884FC01EC5EFF4DC080019758
:10687000782E770C770C770CD082E0E18E2E912C5D
:106880008E0C9F1C00E010E071E0E72EF12CA72D8C
:10689000A00F4D2D50E041705070CA018E259F25EC
:1068A0002C2D30E0217030705901AE24BF24211509
:1068B000310521F021E030E0009711F420E030E0D4
:1068C000A114B10411F440E050E0F40161904F01D3
:1068D000B0E0FD01EE0FFF1FE95EFF4D60817181A9
:1068E00061157105B9F0662D677021F4A816B90617
:1068F00059F510C0613021F44115510529F50AC040
:10690000623021F421153105F9F404C0633011F42B
:106910000097D1F40F5F1F4F0830110519F0D6947E
:10692000C694B5CF8C858D7F8C87DF91CF911F91D9
:106930000F91FF90EF90DF90CF90BF90AF909F901E
:106940008F907F906F900895AA0FBB1FA95EBF4DD7
:10695000ED91FC910995DECF1F920F920FB60F9229
:1069600011242F933F934F935F936F937F938F9354
:106970009F93AF93BF93EF93FF9381E090E00E94CA
:106980001834FF91EF91BF91AF919F918F917F91BB
:106990006F915F914F913F912F910F900FBE0F908C
:1069A0001F9018951F920F920FB60F9211242F93DC
:1069B0003F934F935F936F937F938F939F93AF9387
:1069C000BF93EF93FF9382E090E00E941834FF9111
:1069D000EF91BF91AF919F918F917F916F915F9157
:1069E0004F913F912F910F900FBE0F901F901895D0
:1069F0001F920F920FB60F9211242F933F934F9334
:106A00005F936F937F938F939F93AF93BF93EF9316
:106A1000FF9383E090E00E941834FF91EF91BF91C3
:106A2000AF919F918F917F916F915F914F913F9126
:106A30002F910F900FBE0F901F9018951F920F92DD
:106A40000FB60F9211242F933F934F935F936F9341
:106A50007F938F939F93AF93BF93EF93FF9384E0C4
:106A600090E00E941834FF91EF91BF91AF919F91F8
:106A70008F917F916F915F914F913F912F910F90E7
:106A80000FBE0F901F9018951F920F920FB60F9286
:106A900011242F933F934F935F936F937F938F9323
:106AA0009F93AF93BF93EF93FF9385E090E00E9495
:106AB0001834FF91EF91BF91AF919F918F917F918A
:106AC0006F915F914F913F912F910F900FBE0F905B
:106AD0001F9018958FE10E9425338130910529F48C
:106AE00088ED84BF83E08093800008951F920F9209
:106AF0000FB60F9211248F939F93AF93BF93809102
:106B00004B2090914C20A0914D20B0914E200196A9
:106B1000A11DB11D80934B2090934C20A0934D203C
:106B2000B0934E20BF91AF919F918F910F900FBE68
:106B30000F901F90189578948091500082608093F8
:106B400050008091510081FFFCCF88ED84BF80917F
:106B50004000887F816080934000A0E8B1E027E892
:106B600017962C931797E0E4F9E084E080934009AE
:106B700080EA9FE086AB97AB80914109887F818353
:106B800091E0968317962C938FEF8093B00020E1CD
:106B9000E0E0F6E0208B10920006E0E0F2E01182E7
:106BA0002283138236E03483168290A312A293A329
:106BB000909300028093B000E0E2F6E0208B109208
:106BC00020068093B000E0E4F6E0108A8093B000E5
:106BD000E0E6F6E0108A8093B000E0E8F6E0108A84
:106BE0008FE16AE675E342E050E00E94B0338091A5
:106BF000A2008760E0EAF0E0828378940895629FC3
:106C0000D001739FF001829FE00DF11D649FE00DA4
:106C1000F11D929FF00D839FF00D749FF00D659F05
:106C2000F00D9927729FB00DE11DF91F639FB00D04
:106C3000E11DF91FBD01CF0111240895F894FFCF84
:106C4000100408181A0300010002000300000000ED
:00000001FF
